:1000000073C000008CC000008AC0000088C00000DF
:1000100086C0000084C0000082C0000080C00000D4
:100020007EC000007CC000007AC00000A0C30000B9
:1000300063C3000074C0000072C0000070C0000004
:100040006EC000006CC000006AC0000068C0000004
:1000500066C0000064C0000062C0000060C0000014
:100060005EC000005CC000005AC0000058C0000024
:1000700056C000001201100102000008EB034420EA
:1000800001000102DC0109023E00020100C0320948
:1000900004000001020201000524001001042402F2
:1000A000060524060001070582030800FF09040174
:1000B00000020A000000070504021000050705837E
:1000C00002100005040309040E03530074007200BB
:1000D0006F006200650000000E03530074007200A0
:1000E0006F0062006500000011241FBECFEFD2E058
:1000F000DEBFCDBF11E0A0E0B1E0ECE4FFE002C064
:1001000005900D92AE31B107D9F711E0AEE1B1E043
:1001100001C01D92AE33B107E1F74CD015C770CFC7
:1001200020E030E040ED57E005C0FA013197F1F7EB
:100130002F5F3F4F28173907C4F3089510921C0111
:10014000089581E080931C01089580E091E021C62C
:1001500080E091E0F7C584B1806384B91AB88FEF6D
:100160008BB984B7877F84BF88E10FB6F8948093FA
:100170006000109260000FBE80E090E020E80FB6B3
:10018000F89420936100809361000FBEF999FECF2F
:1001900080E090E0ABD680932D0188E090E0A6D679
:1001A00080932E0180E190E0A9D690933001809356
:1001B0002F0193C2FF920F931F93CF93DF93CBDF57
:1001C00080E091E06FE171E024D5789494E0F92E1D
:1001D00001E01FEF80E091E0EED4AC0197FD3FC05D
:1001E000009719F400931B013AC080911B018130E4
:1001F00019F440932D0106C080911B01823041F417
:1002000040932E0180911B018F5F80931B0127C0BB
:1002100080911B01833099F41092300110922F01CC
:1002200020912F0130913001942F8827822B932B1E
:100230009093300180932F01F0921B0110C08091A8
:100240001B01843061F480912F0190913001842B47
:10025000952B9093300180932F0110921B0180E029
:1002600091E023D593D480911B018823C9F4F99997
:10027000FECF60912D0180E090E045D6F999FECF48
:1002800060912E0188E090E03ED6F999FECF609112
:100290002F017091300180E190E043D610931B0153
:1002A00089B1882361F1C0E0D0E089B1882309F4E5
:1002B00091CF80912D0190E00C2E02C095958795ED
:1002C0000A94E2F780FF02C02C9801C02C9A80911A
:1002D0002E0190E00C2E02C0959587950A94E2F7C6
:1002E00080FF02C02D9801C02D9A80912F0190911E
:1002F000300116DF2196C830D105B9F66BCF15B89D
:1003000069CFDA01923049F0933061F09130F9F41D
:10031000E4E7F0E022E130E01EC0E6E8F0E02EE3A2
:1003200030E019C0813049F0813018F0823079F422
:1003300008C0E4ECF0E0849107C0E8ECF0E08491C0
:1003400003C0E8EDF0E08491282F30E004C0E0E045
:10035000F0E020E030E0ED93FC93C90108959C01AA
:1003600040913C0150913D014617570718F4F9019F
:1003700090E03DC06115710511F0AB01F8CF80919F
:10038000E8008E778093E80040E050E0F0CF809165
:1003900035018823F1F18530F1F18091E80083FF88
:1003A00002C081E008958091E80082FD2CC0809118
:1003B000E80080FF1CC08091F200282F30E007C0C9
:1003C00081918093F100415050402F5F3F4F411584
:1003D000510519F02830310598F390E028303105A7
:1003E00009F491E08091E8008E778093E800411550
:1003F000510569F6992359F606C080913501882385
:1004000041F0853041F08091E80082FFF6CF80E036
:10041000089582E0089583E008959C0140913C0195
:1004200050913D014617570718F4F90190E040C07C
:100430006115710511F0AB01F8CF8091E8008E775E
:100440008093E80040E050E0F0CF809135018823B0
:1004500009F440C0853009F43FC08091E80083FF73
:1004600002C081E008958091E80082FD2DC0809156
:10047000E80080FF1DC08091F200282F30E008C006
:1004800084918093F1003196415050402F5F3F4F4F
:100490004115510519F02830310590F390E02830CE
:1004A000310509F491E08091E8008E778093E800AF
:1004B0004115510551F6992341F606C08091350149
:1004C000882341F0853041F08091E80082FFF6CF2B
:1004D00080E0089582E0089583E00895382F282F62
:1004E0002EC0822F8F708093E900231721F4762F7E
:1004F000942F50E006C07091EC009091ED00509167
:10050000F00091FF1BC08091EB008E7F8093EB0089
:100510008091ED008D7F8093ED008091EB008160F4
:100520008093EB007093EC009093ED005093F000FB
:100530008091EE0087FD02C080E008952F5F253096
:1005400080F23F703093E90081E008950F931F938C
:10055000CF93DF93062FEC0110E02AC098819923F6
:1005600029F16B81E981FA812C81892F8F70853087
:1005700018F5223010F452E001C056E040E028E0C7
:1005800030E003C04F5F220F331F2E173F07D0F319
:100590006295660F660F607C991F9927991F692BDA
:1005A0004295407F452B9ADF882331F01F5F2596C7
:1005B0001017A0F281E001C080E0DF91CF911F9180
:1005C0000F9108958091360188239CF404C0809196
:1005D00035018823B9F08091E80082FFF8CF80913F
:1005E000E8008B778093E800089580913501882397
:1005F00049F08091E80080FFF8CF8091E8008E7785
:100600008093E80008954091E4005091E50024E6CD
:100610008091EC0080FF24C08091E80080FD1EC026
:1006200080913501882311F482E00895853011F41A
:1006300083E008958091EB0085FF02C081E008957A
:100640008091E4009091E5008417950709F3222337
:1006500011F484E008952150AC01DACF80E00895D0
:100660008091E80082FFDCCFF9CF40D042D080916A
:10067000D8008F778093D8008091D80080688093CD
:10068000D8008091D8008F7D8093D80019BC82E07B
:1006900089BD09B400FEFDCF1092350110923101E1
:1006A000109233011092320180E060E042E016DFE8
:1006B0008091E1008E7F8093E1008091E200816073
:1006C0008093E2008091E20088608093E200809154
:1006D000E0008E7F8093E0000895E3E6F0E0808103
:1006E0008E7F808381E080933401BFCF1092E2003F
:1006F00008951092E10008951F920F920FB60F9285
:1007000011241F932F933F934F935F936F937F9386
:100710008F939F93AF93BF93EF93FF931091E90053
:100720008091EC001092E9008091F000877F809327
:10073000F0007894C2D01092E9008091F0008860B7
:100740008093F0001F701093E900FF91EF91BF912B
:10075000AF919F918F917F916F915F914F913F9159
:100760002F911F910F900FBE0F901F9018951F9201
:100770000F920FB60F9211242F933F934F935F93D5
:100780006F937F938F939F93AF93BF93EF93FF9359
:100790008091E10082FF0AC08091E20082FF06C0E2
:1007A0008091E1008B7F8093E100EFD18091E100A7
:1007B00080FF17C08091E20080FF13C08091E200AB
:1007C0008E7F8093E2008091E20080618093E2005E
:1007D0008091D80080628093D80019BC10923501B6
:1007E000B0DC8091E10084FF2CC08091E20084FFA6
:1007F00028C019BC82E089BD09B400FEFDCF8091FC
:10080000D8008F7D8093D8008091E1008F7E809307
:10081000E1008091E2008F7E8093E2008091E2000F
:1008200081608093E20080913101882331F48091CE
:10083000E30087FD02C081E001C084E080933501C0
:100840007DDC8091E10083FF27C08091E20083FF7F
:1008500023C08091E100877F8093E10082E0809354
:100860003501109231018091E1008E7F8093E1008B
:100870008091E2008E7F8093E2008091E2008061AF
:100880008093E20080E060E042E028DE8091F000AA
:1008900088608093F00079D1FF91EF91BF91AF9183
:1008A0009F918F917F916F915F914F913F912F9188
:1008B0000F900FBE0F901F9018951F93DF93CF934B
:1008C000CDB7DEB7AC970FB6F894DEBF0FBECDBF85
:1008D000E6E3F1E08091F100819321E0EE33F2074D
:1008E000C9F733DC8091E80083FF37C1809136017E
:1008F00030913701353009F487C0363040F431305B
:10090000C9F1313070F0333009F027C133C03830CD
:1009100009F4F5C0393009F404C1363009F01DC1BD
:1009200096C0803821F0823809F017C108C0909134
:10093000320180913301882399F0926011C0809137
:100940003A018F708093E9008091EB0090E025E000
:10095000969587952A95E1F7982F91701092E90066
:100960008091E800877F8093E8009093F1001092D7
:10097000F100D0C0882319F0823009F0EEC090E079
:100980008F719070009721F0029709F0E6C00CC0BB
:1009900080913801813009F0E0C01092330133308A
:1009A00069F5809333012AC080913801882331F59D
:1009B00020913A012F7009F4D0C02093E900809172
:1009C000EB0080FF1BC0333021F48091EB0080628C
:1009D00013C08091EB0080618093EB0081E090E098
:1009E00002C0880F991F2A95E2F78093EA001092BF
:1009F000EA008091EB0088608093EB001092E900A0
:100A00008091E800877F89C0882309F0A6C01091F3
:100A100038011F778091E3008078812B8093E30079
:100A20008091E800877F8093E800CCDD8091E8002A
:100A300080FFFCCF8091E30080688093E300112366
:100A400011F482E001C083E08093350186C08058B4
:100A5000823008F082C0809138019091390123E002
:100A60008C3D920709F033C083E08C838AE28B834C
:100A70007FB7F894DE0115966EE040E050E011E299
:100A8000E62FF0E010935700849140FF03C0829559
:100A90008F706F5F8F70282F30E08A3018F0C90197
:100AA000C79602C0C901C0968D939D934F5F5F4F5B
:100AB0004431510529F77FBF8091E800877F8093FB
:100AC000E800CE0103966AE270E049DC12C0609152
:100AD0003A01AE014F5F5F4F14DCBC01009709F48F
:100AE0003CC08091E800877F8093E80089819A81EB
:100AF00094DC8091E8008B778093E8002EC08038EA
:100B000061F58091E800877F8093E8008091310152
:100B10008093F1008091E8008E778093E80052DDA9
:100B20001CC08823D1F4909138019230B0F48091A8
:100B3000E800877F8093E8009093310143DD809146
:100B40003101882331F48091E30087FD02C081E008
:100B500001C084E080933501FBDA8091E80083FFD7
:100B60000AC08091E800877F8093E8008091EB00C5
:100B700080628093EB00AC960FB6F894DEBF0FBE98
:100B8000CDBFCF91DF911F91089508951F9380915C
:100B90003501882371F01091E9008091EC001092EA
:100BA000E9008091E80083FF01C087DE1F70109389
:100BB000E9001F910895FC0180913501843029F5E9
:100BC00084899589A689B7890097A105B105E9F0BF
:100BD00086818F708093E9008091E80082FF15C0C4
:100BE0008091F200882319F42FEF3FEF04C0809129
:100BF000F100282F30E08091F200882341F48091A9
:100C0000E8008B778093E80002C02FEF3FEFC90127
:100C10000895FB012EE0DB011D922A95E9F723E000
:100C2000238323E936E0318720872CE136E03387C0
:100C30002287958784870895FC0184859585BBDF8D
:100C40009C0197FF02C02EEF3FEFC9010895089560
:100C5000FC0180913501843019F584899589A68934
:100C6000B7890097A105B105D9F081818F70809374
:100C7000E9008091F2008823A9F09091E80080912A
:100C8000E8008E778093E80095FD0CC0BCDC982FBF
:100C9000882349F48091E8008E778093E80003C0B0
:100CA00092E001C090E0892F0895FC018091350108
:100CB000843091F484899589A689B7890097A10524
:100CC000B10551F081818F708093E9008091E80037
:100CD00080FF02C0CF01BCCF08951F93FC01162FE7
:100CE000809135018430E1F484899589A689B7899A
:100CF0000097A105B105A1F081818F708093E90073
:100D00008091E80085FD08C08091E8008E7780938F
:100D1000E80079DC882329F41093F10080E001C019
:100D200082E01F910895282FFB0184859585622F0D
:100D3000D4DF882319F420E030E002C02FEF3FEF2A
:100D4000C9010895CF93DF93EC014096FC018BE03D
:100D5000DF011D928A95E9F782E08C83898783E021
:100D60008E87CE01019661E0F1DB882371F0CE0120
:100D7000069661E0EBDB882341F0CE010B9661E043
:100D8000E5DB882319F081E001C080E0DF91CF919D
:100D90000895CF93DF93EC018091E80083FFA3C017
:100DA000888190E020913A0130913B012817390762
:100DB00009F099C080913701813269F0823220F4C4
:100DC000803209F090C03CC0823209F46BC083329B
:100DD00009F089C07AC080913601813A09F083C058
:100DE0008091E800877F8093E8008091E80080FF91
:100DF000FCCF8C899D89AE89BF898093F100292F12
:100E00003A2F4B2F55272093F1009D01442755275A
:100E10002093F1008B2F9927AA27BB278093F100FD
:100E2000888D8093F100898D8093F1008A8D809365
:100E3000F1008091E8008E778093E800C3DB53C017
:100E400080913601813209F04EC08091E800877FA1
:100E50008093E80005C080913501882309F443C0E0
:100E60008091E80082FFF7CF8091F1009091F1002E
:100E70002091F1003091F1008C8B9D8B2E8B3F8B5C
:100E80008091F100888F8091F100898F8091F1002D
:100E90008A8F8091E8008B778093E80093DBCE0106
:100EA000D6DE21C0809136018132E9F48091E800DC
:100EB000877F8093E80086DB80913801909139012B
:100EC000998B888BCE01C3DE0EC0809136018132B2
:100ED00051F48091E800877F8093E80073DBCE01B6
:100EE00060913801B4DEDF91CF910895F999FECF7A
:100EF00092BD81BDF89A992780B50895A8E1B0E028
:100F000042E050E013C0262FF999FECF1FBA92BDE0
:100F100081BD20BD0FB6F894FA9AF99A0FBE0196DA
:100F20000895F1DF272FF0CFDC01CB01FC01F99907
:100F3000FECF06C0F2BDE1BDF89A319600B40D9225
:0C0F400041505040B8F70895F894FFCFDE
:100F4C000083100000010410000001820800000161
:0E0F5C000000000000000000000000FF010087
:00000001FF
